:020000040000FA
:100000008316031300308100831203138B018C01CC
:100010008D0183160317880189018312031385015B
:10002000860101308700FE30F3000130F400073014
:100030008A001430F1008316031380308500860196
:100040008030870083160317483087008316031318
:100050009A010230990024309800831203139030E3
:1000600098008316031307110530920083120313BF
:1000700097019D01033095000C3097008C01910190
:1000800004309200000085168312031702308F009F
:1000900000308D00B620831203138512F10B4B281C
:1000A0008516522853286F28552800008C1E542886
:1000B0001A088600F1030000F10B59286528602812
:1000C00000008C1E5F281A088600730800000000DC
:1000D00087057408870400006D286F286F280000CA
:1000E0008C1E6E281A08F000E039F100F10EFB2E8C
:1000F000F1037A28F10B782800007308871487052C
:100100008316860983120000060899007408870484
:10011000871083168601831200006F281430F100C7
:1001200091284B28FE30F3000130F4006F280B308B
:1001300099009A286F28533099009E286F28A0288C
:1001400000008C1E9F281A08F200A628FA30F10041
:100150000000AA28AB28AC28AD280000F10BA92884
:100160000000F20BA628000099016F2883160317E0
:100170008C170C140000000083120C08F5000E0808
:10018000F6008F0A8D0F8F033F3C031908000313FD
:10019000F61AD828760820388500750886000000F1
:1001A00000007308870574088704D6280000B62865
:1001B00076081F39F60075080319F603F50376086B
:1001C0007504E228E328E428E528E628E728E8285B
:1001D000E928EA28EB28EC28ED28EE28EF28F0287B
:1001E000F128F228F328F428F528F628F728F8282B
:1001F000F928FA280000031DDB280000FF28002949
:02020000B6281E
:100400008833883300000001000200030004000567
:100410000006000700080009000A000B000C000D90
:10042000000E000F00100011001200130014001540
:100430000016001700184004400B80121F18D02728
:100440005A00040120020303410409059A067607B5
:100450002E082009040A410B090C990D510E070FB3
:100460001112E014D027400205073E08400900128F
:10047000D0276002400424074E086009400B270E75
:10048000010F0014D0278002ED075C088009D027F7
:10049000A00276072E08A009D027C00205073E0853
:1004A000C009D027E00224074E08E009D027000247
:1004B0000403ED075C080009050AD027200276072F
:1004C0002E082009D027400205073E084009D02702
:1004D000600224074E0860098012D0278002ED07D1
:1004E0005C088009A20E0E0F8112E014D027A00232
:1004F00076072E08A009D027C00205073E08C009CC
:10050000D027E00224074E08E0090812D027000295
:100510000503ED075C080009060AD027E002040382
:1005200076072E08E009050A8012D027C0020507C9
:100530003E08C0098112D027A00224074E08A00956
:10054000D0278002ED075C088009D027600276077B
:100550002E0860090812D027400205073E0840090E
:10056000D027200224074E0820098012D02700023D
:10057000ED075C0800091112D027E002030376079B
:100580002E08E009040AED0E5C0F8112D027C0028C
:1005900005073E08C0098012D027A00224074E0894
:1005A000A009270E010F8112D0278002ED075C08F9
:1005B0008009D027600276072E086009D027400204
:1005C00005073E0840090812D027200224074E08DC
:1005D0002009D0270002ED075C080009D027760724
:1005E0002E08D027200205073E082009D027400208
:1005F0008012D0276002DB072B08410BA20E0E0FE2
:100600008112D0278002270734084009D027A00292
:100610009D0745086009D027C002B6075708800922
:10062000400B0812D027E002DB072B08A009D027D7
:100630000002040327073408C0098012D0272002D3
:100640009D074508E0098112D0274002B6075708E8
:100650000009050AD0276002DB072B082009D027F4
:1006600080022707340840090812D027A0029D07FE
:1006700045086009D027B607570880098012D0279F
:10068000200203034104DB072B08A009510E070FCA
:100690001112D027400227073408C009760E2E0F0A
:1006A0008112D02760029D074508E0090012D0277B
:1006B00080024004B60757080009060A270E010FFA
:1006C0000014D027A002DB072B08E009050AD02779
:1006D000C00227073408C009D027E0029D0745085B
:1006E000A009D02700020403B60757088009D027C5
:1006F0002002DB072B086009D027400227073408B7
:100700004009D02760029D0745082009D0278002B4
:10071000B607570800098012D027A002DB072B0874
:10072000E009040A510E070F1112E014D027C0028D
:1007300027073408C009760E2E0F8112D027E00259
:100740009D074508A0090012D02700020503B6073F
:1007500057088009270E010F0014D027E002040378
:10076000DB072B086009D027C0022707340840099F
:100770008012D027A0029D0745082009A20E0E0F67
:100780008112E014D0278002B60757080009D0274D
:100790006002DB072B08D027400227073408200916
:1007A0000812D02720029D0745084009D0270002E3
:1007B000B607570860098012D027E0020303DB0761
:1007C0002B0880091112D027C00227073408A0097E
:1007D000ED0E5C0F8112D027A0029D074508C009CD
:1007E0000012D0278002B6075708E009270E010F34
:1007F0000014D0276002DB072B080009050AD02768
:100800004002270734082009D02720029D07450809
:100810004009D0270002B60757086009D027DB0738
:100820002B088009D027200227073408A009D027E9
:1008300040029D074508C009D0276002B607570847
:10084000E0098012D0278002DB072B080009060A86
:10085000A20E0E0F8112E014D027A0022707340841
:10086000E009050AD027C0029D074508C009D02726
:10087000E002B6075708A0090812D02700020403B7
:10088000DB072B088009D0272002270734086009DE
:100890008012D02740029D07450840098112D027C9
:1008A0006002B60757082009D0278002DB072B0813
:1008B0000009D027A00227073408E009040A08121B
:1008C000D027C0029D074508C009D0270012D027B5
:1008D000E700020120020303410476072E08900975
:1008E000070A410B060C6A0D270E010F0014D027D2
:1008F0004002CF0722082009D027600245071D08C3
:10090000B009060AD027800240043B0717084009B7
:10091000500BD027A00276072E08D009050AD02751
:10092000C002CF0722086009D027E00265071D0832
:10093000F009040AD027000204037B071708800986
:10094000D027200296072E081009D0274002CF0793
:100950002208A009030AD027600225071D083009D4
:10096000D0278002FB071608C009020AD027A00280
:1009700016072E085009D027C0026F072208E00989
:10098000010AD027E00205071D087009D0270002E0
:1009900005031B0717080009D027E00204037607A8
:1009A0002E08D027C002EF072208D027A002850713
:1009B0001D08D02780025B071708D0276002760742
:1009C0002E08D0274002AF072208D02720020507B3
:1009D0001D08D0270002DB071608D027E00203031A
:1009E00016072E08D027C0028F072208D027A002A2
:1009F00025071D08D02780023B071708D027600273
:100A000096072E08D02740020F072308D027200280
:100A100065071D08D02700023B071708D027560797
:100A20002E08D02720028F072208D0274002E50792
:100A30001C08D0276002DB071608D0278002360783
:100A40002E08D027A002AF072208D027C0024507F2
:100A50001D08D027E0025B071708D0270002040317
:100A6000B6072E08D0272002EF072208D027400221
:100A700045071D08D02760021B071708D0278002F2
:100A800036072E08D027A0026F072208D027C00201
:100A9000E5071C08D027FB071608D0272002030310
:100AA000410456072E08D0274002CF072208D0273E
:100AB000600265071D08D027800240047B071708E5
:100AC000D027A00296072E08D027C002CF07220801
:100AD000D027E00225071D08D02700020403FB07EA
:100AE0001608D027200216072E08D02740026F07CD
:100AF0002208D027600205071D08D02780021B07A7
:100B00001708D027A00276072E08D027C002EF07CB
:100B10002208D027E00285071D08D0270002050320
:100B20005B071708D027E002040376072E08D027BA
:100B3000C002AF072208D027A00205071D08D02752
:100B40008002DB071608D027600216072E08D02780
:100B500040028F072208D027200225071D08D02732
:100B600000023B071708D027E002030396072E0870
:100B7000D027C0020F072308D027A00265071D0851
:100B8000D02780023B071708D027600256072E089F
:100B9000D02740028F072208D0272002E5071C0833
:100BA000D0270002DB071608D02736072E08D027EB
:100BB0002002AF072208D027400245071D08D02792
:100BC00060025B071708D0278002B6072E08D027DF
:100BD000A002EF072208D027C00245071D08D02732
:100BE000E0021B071708D0270002040336072E086F
:100BF000D02720026F072208D0274002E5071C08F3
:100C0000D0276002FB071608D027800256072E085F
:100C1000D027A002CF072208D027C00265071D08F1
:100C20004C3D4C3D4C3D4C3D4C3D4C3D8833FF3F95
:0A0DF60070082038850070088200A4
:100E00005F285F285F285F285F285F285F285F28AA
:100E10005F285F285F285F285F285F285F285F289A
:100E20005F285F285F285F285F285F285F285F288A
:100E30005F287D287D287D287D2800000000000097
:100E400054285428542854285428542854285428C2
:100E500054285428542854285428542854285428B2
:100E600054285428542854285428542854285428A2
:100E70005428782878287828782800000000000076
:100E80005428542854285428542854285428542882
:100E90005428542854285428542854285428542872
:100EA0005428542854285428542854285428542862
:100EB0005428782878287828782800000000000036
:100EC0005428542854285428542854285428542842
:100ED0005428542854285428542854285428542832
:100EE0005428542854285428542854285428542822
:100EF00054287828782878287828000000000000F6
:100F00005428542854285428542854285428542801
:100F100054285428542854285428542854285428F1
:100F200054285428542854285428542854285428E1
:100F3000542878287828782878286F289F28000057
:100F400054285428542854285428542854285428C1
:100F500054285428542854285428542854285428B1
:100F600054285428542854285428542854285428A1
:100F70005428782878287828782892289228922847
:100F80005428542854285428542854285428542881
:100F90005428542854285428542854285428542871
:100FA0005428542854285428542854285428542861
:100FB0005428782878287828782800000000000035
:100FC0005428542854285428542854285428542841
:100FD0005428542854285428542854285428542831
:100FE0005428542854285428542854285428542821
:100FF0005428782878287828782897289B288E28BD
:02400E00E323AA
:02401000FF3F70
:00000001FF
