:020000040000FA
:100000008316031300308100831203138B018C01CC
:100010008D0183160317880189018312031385015B
:10002000860101308700FE30F3000130F400073014
:100030008A001430F1008316031380308500860196
:100040008030870083160317483087008316031318
:1000500002309900243098008312031390309800E6
:1000600083160313071105309200831203139701BF
:100070009D01033095000C3097008C0191010430F4
:10008000920007168312031702308F0000308D0094
:10009000B420831203130712F10B492807165028C6
:1000A00051286C28532800008C1E52281A08F1038E
:1000B00000008600F10B572863285E2800008C1E84
:1000C0005D281A0886007308000000008705740880
:1000D000870400006B286C286D2800008C1E6C289B
:1000E0001A08F000E039F100F10EFD2EF103782836
:1000F000F10B76280000730887148705831686099C
:10010000831200000608990074088704871083167C
:100110008601831200006C281430F1008F284928D2
:10012000FE30F3000130F4006C280B309900982861
:100130006C28533099009C286C289E2800008C1E47
:100140009D281A08F200A428FA30F1000000A8281F
:10015000A928AA28AB280000F10BA7280000F20B61
:10016000A428000099016C28831603178C170C141F
:100170000000000083120C08F5000E08F6008F0A3C
:100180008D0F8F033F3C031908000313F61AD5287F
:100190007608850075088600CD280000730887055D
:1001A00074088704D3280000B42876081F39F600A5
:1001B00075080319F603F50376087504DF28E028AF
:1001C000E128E228E328E428E528E628E728E828CB
:1001D000E928EA28EB28EC28ED28EE28EF28F0287B
:1001E000F128F228F328F428F528F628F72800004B
:0C01F000031DD8280000FC28FD28B428BE
:10040000D027D027D027D027D0274004400B8012F8
:10041000F1171F18D0275A000401410420020303DA
:1004200009059A0676072E08410B2009040A090CD3
:10043000990D510E070F1112E014C016D02740027B
:1004400005073E0840090012A016D02740046002AC
:1004500024074E08400B6009270E010F0014801678
:10046000D0278002ED075C0880096016D027A00223
:1004700076072E08A009D027C00205073E08C0094C
:10048000D027E00224074E08E009D0270002040329
:10049000ED075C080009050AD027200276072E0820
:1004A0002009D027400205073E084009D0276002F6
:1004B00024074E0860098012D0278002ED075C08EF
:1004C0008009A20E0E0F8112E014D027A002760739
:1004D0002E08A009D027C00205073E08C009D02772
:1004E000E00224074E08E0090812D02700020503A5
:1004F000ED075C080009060AD027E002040376072E
:100500002E08E009050A8012D027C00205073E0820
:10051000C0098112D027A00224074E08A009D027C5
:100520008002ED075C088009D027600276072E085C
:1005300060090812D027400205073E084009D0276D
:10054000200224074E0820098012D0270002ED0760
:100550005C0800091112D027E002030376072E0879
:10056000E009040AED0E5C0F8112D027C0020507D6
:100570003E08C0098012D027A00224074E08A00917
:10058000270E010F8112D0278002ED075C08800939
:10059000D027600276072E086009D02740020507A1
:1005A0003E0840090812D027200224074E082009DF
:1005B000D0270002ED075C080009D02776072E0837
:1005C000D027200205073E082009D02740028012CC
:1005D0009B16D0276002DB072B08410BA20E0E0FE3
:1005E00081129116D0278002270734084009871608
:1005F000D027A0029D07450860097D16D027C002BC
:10060000B6075708400B800908127316D027E0027E
:10061000DB072B08A0096916D0270002040327076F
:100620003408C00980125F16D02720029D074508B4
:10063000E00981125516D0274002B6075708000975
:10064000050A4B16D0276002DB072B08200941164C
:10065000D027800227073408400908123716D02710
:10066000A0029D07450860092D16D027B607570838
:10067000800980122816D027410420020303DB07DB
:100680002B08A009510E070F1112C016D0274002E7
:1006900027073408C009760E2E0F8112A016D02726
:1006A00060029D074508E00900128016D02740042B
:1006B0008002B60757080009060A270E010F00142A
:1006C0006016D027A002DB072B08E009050AD02717
:1006D000C00227073408C009D027E0029D0745085B
:1006E000A009D02700020403B60757088009D027C5
:1006F0002002DB072B086009D027400227073408B7
:100700004009D02760029D0745082009D0278002B4
:10071000B607570800098012D027A002DB072B0874
:10072000E009040A510E070F1112E014D027C0028D
:1007300027073408C009760E2E0F8112D027E00259
:100740009D074508A0090012D02700020503B6073F
:1007500057088009270E010F0014D027E002040378
:10076000DB072B086009D027C0022707340840099F
:100770008012D027A0029D0745082009A20E0E0F67
:100780008112E014D0278002B60757080009D0274D
:100790006002DB072B08D027400227073408200916
:1007A0000812D02720029D0745084009D0270002E3
:1007B000B607570860098012D027E0020303DB0761
:1007C0002B0880091112D027C00227073408A0097E
:1007D000ED0E5C0F8112D027A0029D074508C009CD
:1007E0000012D0278002B6075708E009270E010F34
:1007F0000014D0276002DB072B080009050AD02768
:100800004002270734082009D02720029D07450809
:100810004009D0270002B60757086009D027DB0738
:100820002B088009D027200227073408A009D027E9
:1008300040029D074508C009D0276002B607570847
:10084000E0098012D0278002DB072B080009060A86
:10085000A20E0E0F8112E014D027A0022707340841
:10086000E009050AD027C0029D074508C009D02726
:10087000E002B6075708A0090812D02700020403B7
:10088000DB072B088009D0272002270734086009DE
:100890008012D02740029D07450840098112D027C9
:1008A0006002B60757082009D0278002DB072B0813
:1008B0000009D027A00227073408E009040A08121B
:1008C000D027C0029D074508C009D0270012D027B5
:1008D000E700020141042002030376072E08410BC2
:1008E0009009070A060C6A0D270E010F0014B016B6
:1008F000D0274002CF0722082009C016D027600267
:1009000045071D08B009060AB016D027400480022A
:100910003B071708500B4009A016D027A002760706
:100920002E08D009050A9016D027C002CF0722084A
:1009300060098016D027E00265071D08F009040A47
:100940007016D027000204037B0717088009601681
:10095000D027200296072E081009D0274002CF0783
:100960002208A009030AD027600225071D083009C4
:10097000D0278002FB071608C009020AD027A00270
:1009800016072E085009D027C0026F072208E00979
:10099000010AD027E00205071D087009D0270002D0
:1009A00005031B0717080009D027E0020403760798
:1009B0002E08D027C002EF072208D027A002850703
:1009C0001D08D02780025B071708D0276002760732
:1009D0002E08D0274002AF072208D02720020507A3
:1009E0001D08D0270002DB071608D027E00203030A
:1009F00016072E08D027C0028F072208D027A00292
:100A000025071D08D02780023B071708D027600262
:100A100096072E08D02740020F072308D027200270
:100A200065071D08D02700023B071708D027560787
:100A30002E08D02720028F072208D0274002E50782
:100A40001C08D0276002DB071608D0278002360773
:100A50002E08D027A002AF072208D027C0024507E2
:100A60001D08D027E0025B071708D0270002040307
:100A7000B6072E08D0272002EF072208D027400211
:100A800045071D08D02760021B071708D0278002E2
:100A900036072E08D027A0026F072208D027C002F1
:100AA000E5071C08D027FB071608D02741042002C1
:100AB000030356072E08B016D0274002CF0722089E
:100AC000C016D027600265071D08B016D027400465
:100AD00080027B071708A016D027A00296072E08D1
:100AE0009016D027C002CF0722088016D027E00238
:100AF00025071D087016D02700020403FB071608FF
:100B00006016D027200216072E08D02740026F0754
:100B10002208D027600205071D08D02780021B0786
:100B20001708D027A00276072E08D027C002EF07AB
:100B30002208D027E00285071D08D0270002050300
:100B40005B071708D027E002040376072E08D0279A
:100B5000C002AF072208D027A00205071D08D02732
:100B60008002DB071608D027600216072E08D02760
:100B700040028F072208D027200225071D08D02712
:100B800000023B071708D027E002030396072E0850
:100B9000D027C0020F072308D027A00265071D0831
:100BA000D02780023B071708D027600256072E087F
:100BB000D02740028F072208D0272002E5071C0813
:100BC000D0270002DB071608D02736072E08D027CB
:100BD0002002AF072208D027400245071D08D02772
:100BE00060025B071708D0278002B6072E08D027BF
:100BF000A002EF072208D027C00245071D08D02712
:100C0000E0021B071708D0270002040336072E084E
:100C1000D02720026F072208D0274002E5071C08D2
:100C2000D0276002FB071608D027800256072E083F
:100C3000D027A002CF072208D027C00265071D08D1
:040C4000D027FF3F7B
:060DFA0070088500820074
:100E00005D285D285D285D285D285D285D285D28BA
:100E10005D285D285D285D285D285D285D285D28AA
:100E20005D285D285D285D285D285D285D285D289A
:100E30005D287B287B287B287B28000000000000A1
:100E400052285228522852285228522852285228D2
:100E500052285228522852285228522852285228C2
:100E600052285228522852285228522852285228B2
:100E70005228762876287628762800000000000080
:100E80005228522852285228522852285228522892
:100E90005228522852285228522852285228522882
:100EA0005228522852285228522852285228522872
:100EB0005228762876287628762800000000000040
:100EC0005228522852285228522852285228522852
:100ED0005228522852285228522852285228522842
:100EE0005228522852285228522852285228522832
:100EF0005228762876287628762800000000000000
:100F00005228522852285228522852285228522811
:100F10005228522852285228522852285228522801
:100F200052285228522852285228522852285228F1
:100F3000522876287628762876286C289D28000066
:100F400052285228522852285228522852285228D1
:100F500052285228522852285228522852285228C1
:100F600052285228522852285228522852285228B1
:100F70005228762876287628762890289028902857
:100F80005228522852285228522852285228522891
:100F90005228522852285228522852285228522881
:100FA0005228522852285228522852285228522871
:100FB000522876287628762876280000000000003F
:100FC0005228522852285228522852285228522851
:100FD0005228522852285228522852285228522841
:100FE0005228522852285228522852285228522831
:100FF00052287628762876287628952899288C28CD
:02400E00E323AA
:02401000FF3F70
:00000001FF
